:020000040800F2
:1000000000000220D14B00089D4800089F480008CE
:10001000A1480008A3480008A54800080000000007
:10002000000000000000000000000000A7480008D9
:10003000A948000800000000AB480008AD480008CF
:10004000214C0008214C0008214C0008214C0008DC
:10005000214C0008214C0008214C0008214C0008CC
:10006000214C0008214C0008214C0008214C0008BC
:10007000214C0008B5480008214C0008214C00081C
:10008000214C0008214C0008C5480008214C0008FC
:10009000214C0008214C0008214C0008214C00088C
:1000A000214C0008214C0008214C0008214C00087C
:1000B000D5480008214C0008214C0008214C0008BC
:1000C000214C000811490008214C0008214C00086F
:1000D000214C000821490008214C0008214C00084F
:1000E000214C0008214C0008214C0008214C00083C
:1000F000214C000831490008214C00084149000802
:10010000214C0008214C0008214C0008214C00081B
:10011000214C0008214C0008214C0008214C00080B
:1001200051490008214C0008214C0008214C0008CE
:10013000214C00080000000000000000214C0008D5
:10014000214C0008214C0008214C0008214C0008DB
:10015000214C0008214C000861490008214C00088E
:10016000214C0008214C0008214C0008214C0008BB
:10017000214C0008214C0008000000000000000095
:08018000214C0008214C00088D
:1001880010B5054C237833B9044B13B10448AFF3C9
:1001980000800123237010BD28000020000000000B
:1001A8007C4C000808B5034B1BB103490348AFF367
:1001B800008008BD000000002C0000207C4C0008D6
:1001C80053B94AB9002908BF00281CBF4FF0FF31B6
:1001D8004FF0FF3000F06EB9ADF1080C6DE904CEB8
:1001E80000F006F8DDF804E0DDE9022304B070470A
:1001F8002DE9F047089D04468C46002B40F083808B
:100208008A42174647D9B2FA82F242B1C2F12000B7
:1002180024FA00F09140974040EA010C94404FEADC
:100228001748230CBCFBF8F61FFA87FE08FB16C11B
:1002380043EA014306FB0EF1994209D9FB1806F17E
:10024800FF3080F01981994240F21681023E3B440A
:100258005B1AA4B2B3FBF8F008FB103344EA03447A
:1002680000FB0EFEA64509D93C1900F1FF3380F0CA
:100278000581A64540F2028102383C4440EA064026
:10028800A4EB0E0400261DB1D4400023C5E90043A9
:100298003146BDE8F08702B9FFDEB2FA82F2002AE1
:1002A80050D1CB1B4FEA174E1FFA87F80126B3FB34
:1002B800FEFC210C0EFB1C3341EA034108FB0CF346
:1002C8008B4207D979180CF1FF3002D28B4200F229
:1002D800E9808446C91AA3B2B1FBFEF00EFB1011E7
:1002E80043EA014408FB00F8A04507D93C1900F18E
:1002F800FF3302D2A04500F2D9801846A4EB0804C7
:1003080040EA0C40BFE78B4209D9002D00F0B180CC
:100318000026C5E9000130463146BDE8F087B3FA4A
:1003280083F6002E4AD18B4202D3824200F2B88073
:10033800841A61EB030101208C46002DA8D0C5E981
:10034800004CA5E7C2F1200320FA03F6974001FA12
:1003580002F04FEA174ED9403043030CB1FBFEF6CA
:100368001FFA87F80EFB161143EA014306FB08F152
:10037800994204FA02F409D9FB1806F1FF3C80F00F
:100388008D80994240F28A80023E3B445B1A81B2DA
:10039800B3FBFEF00EFB103341EA034100FB08F308
:1003A8008B4207D9791800F1FF3C73D28B4271D97F
:1003B80002383944CB1A40EA064678E7C6F1200CE1
:1003C80003FA06F422FA0CF31C4320FA0CF701FA9C
:1003D80006F34FEA144E21FA0CF11F433B0CB1FB14
:1003E800FEF91FFA84F80EFB191143EA014109FBD3
:1003F80008FA8A4502FA06F200FA06F308D96118E3
:1004080009F1FF3048D28A4546D9A9F102092144A9
:10041800A1EB0A01BFB2B1FBFEF00EFB101147EAD7
:10042800014700FB08F8B84507D9E71900F1FF3183
:100438002ED2B8452CD90238274440EA0940A7EB08
:100448000807A0FB02894F45C64649461AD317D06C
:100458005DB1B3EB0E0267EB010707FA0CFCF24043
:100468004CEA0202F740C5E9002700263146BDE8FC
:10047800F0872E4628460BE70646E9E61846FDE6CD
:100488004345E5D2B8EB020E69EB04010138DFE71A
:100498000846D2E760468DE78146B9E7664675E7C4
:1004A80030464AE7ACF1020C394413E702383C44C1
:1004B80024E700BF704700BF10B504460E4B1878FC
:1004C8004FF47A73B3FBF0F30C4A1068B0FBF3F007
:1004D80000F0E8FB68B90F2C01D901200AE00022DE
:1004E80021464FF0FF3000F09BFB034B5C6000207F
:1004F80000E0012010BD00BF000000202400002003
:1005080008B50B4B1A6842F400721A601A6842F474
:1005180080621A601A6842F480721A60032000F040
:100528006DFB0020FFF7C8FF04F098F9002008BD14
:10053800003C0240034A1168034B1B780B441360CC
:10054800704700BF4C00002000000020014B1868D5
:10055800704700BF4C0000204A4B5A6822F44032D2
:100568005A605A6841680A435A600268536823F41B
:100578008073536002685368016943EA012353603A
:100588000268536823F040735360026853688168B7
:100598000B4353600268936823F400639360026816
:1005A8009368C1680B439360826A374B9A4257D06D
:1005B8000268936823F07063936002689368816AA5
:1005C8000B4393600268936823F04053936002687A
:1005D8009368C16A0B4393600268936823F002032F
:1005E800936002689368017E43EA4103936090F840
:1005F8002030002B3FD00268536843F400635360F7
:100608000268536823F46043536001684B68426A88
:10061800013A43EA42334B600268D36A23F4700319
:10062800D3620168CB6AC269013A43EA0253CB62DA
:100638000268936823F4007393600268936890F8E3
:10064800301043EA412393600268936823F480637F
:10065800936002689368416943EA81239360704715
:100668000268936823F0706393600268936823F0CC
:1006780040539360B0E70268536823F40063536003
:10068800CAE700BF002301400100000F38B310B5CE
:100698000446036C43B1236C13F0100F0BD00120F8
:1006A800002384F83C3010BD03F038FE0023636457
:1006B80084F83C30EFE7236C23F4885323F00203DB
:1006C80043F0020323642046FFF746FF00206064DE
:1006D800236C23F0030343F001032364E0E70120C4
:1006E8007047000010B582B013460022019290F8BE
:1006F8003C20012A00F0AE800446012280F83C200C
:100708000268906810F0010F13D1906840F0010062
:100718009060534A1068534AA2FB0020800C00EBFB
:100728004000019002E001980138019001980028EA
:10073800F9D12268906810F4807F03D0906820F483
:10074800807090602268906810F0010F77D0206C5C
:1007580020F4E06020F0010040F4807020645268CA
:1007680012F4806F05D0226C22F4405242F4805279
:100778002264226C12F4805F36D0626C22F006028A
:100788006264002284F83C20A26B3748D063A26BD5
:1007980036481064A26B3648D06422686FF0220095
:1007A80010602068426842F0806242602068826877
:1007B80042F48072826020680A4600F14C01A06B06
:1007C80000F06CFB2B4B5B6813F01F0F27D12368DD
:1007D800294A934211D002F58072934207D0274AE2
:1007E800934214D0002033E000226264C9E702F586
:1007F8000072526812F01F0FF1D19A6812F0405F30
:100808002AD19A6842F080429A60002020E002F5DE
:100818008072526812F0100FEFD0002018E02368A1
:10082800154A934201D0002012E09A6812F0405F06
:1008380014D19A6842F080429A60002008E0236C44
:1008480043F010032364636C43F0010363640020E6
:1008580002B010BD0220FBE70020F9E70020F7E70F
:100868002400002083DE1B43FF0900088D080008D0
:10087800E90900080023014000200140002201404E
:100888007047704708B5806BFFF7FBFF08BD7047DE
:10089800704738B5044602681168536811F0020FB2
:1008A8002FD003F0200363B3036C13F0100F03D1B0
:1008B800036C43F400730364936813F0405F19D129
:1008C800237EBBB9D36A13F4700F03D0936813F473
:1008D800806F0FD1536823F020035360236C23F4F7
:1008E80080732364236C13F4805F03D1236C43F07B
:1008F800010323642046FFF7C3FF23686FF0120249
:100908001A60236819685A6802F0800211F0040F0F
:1009180036D0002A34D0226C12F0100F03D1226C8A
:1009280042F4005222649A6812F4401F21D19A6B53
:1009380012F4401F03D09A6812F4806F19D15A68D4
:1009480012F4806F15D19A6812F0405F11D1227E9F
:100958007AB95A6822F080025A60236C23F48053D3
:100968002364236C13F4807F03D1236C43F00103C9
:100978002364204600F040F923686FF00C021A60E7
:1009880022681168536803F0400311F0010F04D086
:100998001BB1136813F0010F09D12268116853685D
:1009A80003F0806311F0200F00D063B938BD236CC9
:1009B80043F4803323642046FFF769FF23686FF010
:1009C80001021A60E9E7636C43F0020363646FF0A5
:1009D800200515602046FFF75BFF23681D60E5E7EB
:1009E80008B5806B40230364436C43F004034364FD
:1009F800FFF74EFF08BD08B50346806B026C12F086
:100A0800500F25D1036C43F40073036403689A689C
:100A180012F0405F19D1027EBAB9DA6A12F4700F87
:100A280003D09A6812F4806F0FD15A6822F020021E
:100A38005A60036C23F480730364036C13F4805FBF
:100A480003D1036C43F001030364FFF719FF08BDEA
:100A5800026C12F0100F04D1826BD26C18469047CA
:100A6800F5E7FFF715FFF2E730B482B000230193F2
:100A780090F83C30012B00F0B780012380F83C301F
:100A88000B68092B3ED90568EA689BB203EB430360
:100A98001E3B072404FA03F322EA0303EB6005680C
:100AA800EA688C680B8803EB43031E3B04FA03F3E4
:100AB8001343EB604B68062B3AD805686A6B03EB67
:100AC8008303053B1F2404FA03F322EA03036B6341
:100AD80005686A6B4B6803EB8303053B0C8804FAD3
:100AE80003F313436B630268404B9A4250D0026889
:100AF8003E4B9A4255D0002380F83C30184602B04D
:100B080030BC704705682A699BB203EB430307248E
:100B180004FA03F322EA03032B6105682A698C6847
:100B28000B8803EB430304FA03F313432B61C1E778
:100B38000C2B16D805682A6B03EB8303233B1F2471
:100B480004FA03F322EA03032B6305682A6B4B6854
:100B580003EB8303233B0C8804FA03F313432B634F
:100B6800C1E70568EA6A03EB8303413B1F2404FAE3
:100B780003F322EA0303EB620568EA6A4B6803EBB6
:100B88008303413B0C8804FA03F31343EB62AAE79F
:100B98000B68122BABD1164A536843F48003536099
:100BA800A5E70B68103B012BA5D8114A536843F4FD
:100BB800000353600B68102B9DD10E4B1B6802F18C
:100BC800467202F52E3202F28332A2FB03239B0CFB
:100BD80003EB83035B00019302E0019B013B01935C
:100BE800019B002BF9D186E7022088E7002001400D
:100BF800002301402400002070470000074AD36802
:100C080023F4E0631B041B0C000200F4E0600343C0
:100C180043F0BF6343F40033D360704700ED00E056
:100C280030B4174BDB68C3F30223C3F10704042C69
:100C380028BF04241D1D062D18D9033B4FF0FF358E
:100C480005FA04F421EA0401994005FA03F322EABB
:100C58000303194300280BDB0901C9B200F1604006
:100C680000F5614080F8001330BC70470023E5E7C9
:100C780000F00F000901C9B2024B1954F4E700BF94
:100C880000ED00E014ED00E0002807DB00F01F0293
:100C9800400901239340024A42F82030704700BFC0
:100CA80000E100E00138B0F1807F0AD2064B5860BD
:100CB800064AF02182F823100020986007221A6063
:100CC80070470120704700BF10E000E000ED00E031
:100CD80030B405682C6824F480242C6004686360B0
:100CE8008368402B05D0036899600368DA6030BCDC
:100CF800704703689A600368D960F8E710B403681E
:100D0800D9B210390C4AA2FB014212090B4CA25C61
:100D1800C2655F2909D923F47F7323F003030433E1
:100D28008365806D5DF8044B704723F47F7323F06F
:100D380003038365F5E700BFABAAAAAA944C000891
:100D4800836A826992B9012B0AD0022B02D00BB1B7
:100D580000207047C36A13F0807F28D100207047B5
:100D6800C36AB3F1C07F24D000207047B2F5005F9A
:100D780009D0022B25D9032B25D1C36A13F0807F14
:100D880023D100207047032B03D8DFE803F01404B5
:100D9800140A00207047C36A13F0807F0DD1002029
:100DA8007047C36AB3F1C07F09D0002070470120A3
:100DB80070470120704701207047012070470120CB
:100DC80070470120704700207047012070470000DD
:100DD80070B50446FFF7BAFB002C5BD0054602232A
:100DE80084F83530002384F834302268136823F0FF
:100DF8000103136023681A6812F0010F0AD0FFF785
:100E0800A5FB431B052BF5D920236365032084F834
:100E1800350070BD1A68204810406168A2680A430E
:100E2800E1680A4321690A4361690A43A1690A43DF
:100E3800E1690A43216A0A430243616A04291ED010
:100E48001A602668756925F00705636A1D43042B37
:100E580007D1A36A1D43E36A1BB12046FFF770FF61
:100E680090B975612046FFF749FFE26D3F23934033
:100E7800836000206065012384F83530C9E7E16AA2
:100E8800206B01430A43DBE740236365012084F8B4
:100E98003500BEE70120BCE73F8010F038B50446B6
:100EA800856D90F8340001282BD0012084F8340097
:100EB80094F83500C0B2012804D0002384F83430F7
:100EC800022038BD022084F83500002060652046E5
:100ED800FFF7FEFEE26D3F239340AB602268136884
:100EE80043F016031360236C23B12268136843F0A0
:100EF800080313602268136843F00103136000209D
:100F0800DFE70220DDE770B50446866DFFF71EFBBC
:100F180094F83530DBB2022B06D0802363650023BA
:100F280084F83430012070BD05462268136823F028
:100F3800160313602268536923F080035361236CFE
:100F4800E3B12268136823F008031360226813686A
:100F580023F00103136023681B6813F0010F11D0FD
:100F6800FFF7F4FA431B052BF5D92023636503200B
:100F780084F83500002384F83430D4E7A36C002BC0
:100F8800DFD1E3E7E26D3F239340B360012384F8A8
:100F98003530002084F83400C5E790F83530DBB2EE
:100FA800022B03D08023436501207047052380F876
:100FB80035300268136823F001031360002070477E
:100FC800F0B583B0044600230193724B1D68724B41
:100FD800A3FB0535AD0A876D3E68C26D08239340B3
:100FE800334210D003681A6812F0040F0BD01A6845
:100FF80022F004021A60C26D08239340BB60436D5F
:1010080043F001034365E26D01239340334209D065
:101018002268526912F0800F04D0BB60636D43F000
:1010280002036365E26D04239340334209D02268CA
:10103800126812F0020F04D0BB60636D43F0040322
:101048006365E26D10239340334224D0226812680E
:1010580012F0080F1FD0BB6023681A6812F4802FA3
:101068000DD01B6813F4002F04D1236C9BB12046CC
:10107800984710E0A36C73B1204698470BE01A68B4
:1010880012F4807F03D11A6822F008021A60236CD8
:101098000BB120469847E26D20239340334255D048
:1010A8002268126812F0100F50D0BB6094F83530E7
:1010B800DBB2052B0ED023681A6812F4802F33D0C8
:1010C8001B6813F4002F2AD1636C002B3ED02046F6
:1010D80098473BE02268136823F0160313602268E0
:1010E800536923F080035361236CA3B1226813680A
:1010F80023F008031360E26D3F239340BB60012394
:1011080084F83530002384F83430236D002B3FD029
:10111800204698473CE0A36C002BE7D1EBE7E36B54
:10112800A3B12046984711E01A6812F4807F09D1CC
:101138001A6822F010021A60012384F8353000235F
:1011480084F83430E36B0BB120469847636DFBB1EC
:10115800636D13F0010F17D0052384F8353022682A
:10116800136823F001031360019B01330193AB4221
:1011780004D823681B6813F0010FF5D1012384F804
:101188003530002384F83430E36C0BB1204698479F
:1011980003B0F0BD24000020B5814E1B90F8350047
:1011A8007047000000230F2B00F2DD80F0B482B0FE
:1011B8005DE086685F000324BC4026EA0406CC682C
:1011C800BC4034438460466826EA02064C68C4F38F
:1011D80000129A403243426057E0DC08083450F865
:1011E800247003F0070296000F22B24027EA020794
:1011F8000A69B2403A4340F824205AE0072200E046
:101208000022B2403A430234574E46F82420574A47
:101218001468EA4324EA05064F6817F4803F01D0B2
:1012280045EA0406514C2660646802EA04064F68E1
:1012380017F4003F01D045EA04064C4C6660A468E8
:1012480002EA04064F6817F4801F01D045EA040635
:10125800464CA660E46822404E6816F4001F01D090
:1012680045EA0402414CE26001330F2B78D8012291
:101278009A400C6804EA020532EA0404F4D14C6886
:1012880004F00304013C012C93D94A6802F00302DC
:10129800032A09D0C4685E000322B24024EA02048B
:1012A8008A68B2402243C2604A6802F00302022AF6
:1012B80093D004685E000322B24024EA02044A681C
:1012C80002F00302B240224302604A6812F4403F2F
:1012D800CAD000220192264A546C44F480445464D3
:1012E800526C02F480420192019A9C08A61C1E4A84
:1012F80052F8267003F0030296000F22B24027EA44
:1013080002071C4A90423FF47BAF02F5806290428C
:101318001AD002F58062904218D002F5806290429D
:1013280016D002F58062904214D002F58062904295
:1013380012D002F58062904210D002F5806290428D
:101348003FF45CAF08225CE701225AE7022258E723
:10135800032256E7042254E7052252E7062250E703
:1013680002B0F0BC7047704700380140003C0140B3
:1013780000380240000002400AB181617047090448
:101388008161704790F83E30DBB2402B10D0036982
:10139800B3F5804F1BD0036D002B39D1436CC3F3D9
:1013A800C813026803F0060343F0F00313617047A3
:1013B800036D2BB9436C026803F0FE031361704799
:1013C800436C026843F00103DBB21361704790F885
:1013D8003D30DBB2212B0FD0436C026843F0010390
:1013E800DBB21361436B6BB1DB6B5BB102685368B3
:1013F80043F4006353607047436C026803F0FE03D4
:101408001361EFE7836B33B1DB6B002BEED102E0A6
:10141800036D012B00D07047436CC3F3C8130268F7
:1014280003F0060343F0F1031361F4E7436C026829
:10143800DBB21361436B3BB1DB6B2BB102685368C2
:1014480043F4006353607047836B002BFBD0DB6B66
:10145800002BF3D1F7E710B48BB090F83E30DAB236
:10146800C16A046B90F83D30DBB2222B0BD000230D
:10147800099303685A6909929B690993099B0BB000
:101488005DF8044B7047036D0BB9402A17D0036D04
:101498001BB90369B3F5404F19D0438D9BB2002B9C
:1014A80025D1029303685A6902929A690292029AB4
:1014B8001A6842F400721A6000230365DFE700939C
:1014C80003685A6900929B690093009BD7E7002341
:1014D800019303685A6901929A690192019A1A68FC
:1014E80042F480721A60036D01330365C7E7438DC8
:1014F8009BB2012B25D0438D9BB2022B7BD0026877
:10150800136843F48063136003685A6812F4006F29
:101518000ED011F5803F07D0012905D0082903D046
:10152800102901D0202903D15A6842F480525A6008
:101538000023089303685A6908929B690893089BDB
:10154800BAE711F5803F11D0082934D0202932D0CC
:10155800122C2ED0042940D002293ED010293CD08C
:101568000268136823F4806313603BE00268136821
:1015780023F48063136003685A6812F4006F0CD078
:101588001A6822F480621A600023039303685A6978
:1015980003929B690393039B8EE7002204925A6986
:1015A80004929A690492049A1A6842F400721A60C2
:1015B80082E70129CED00268136823F480631360A0
:1015C8000023069303685A6906929A690692069A56
:1015D8001A6842F400721A606EE70268136843F4EE
:1015E800806313600023059303685A6905929B6919
:1015F8000593059B60E704290ED002290CD0102919
:101608000AD00268136823F48063136002681368C1
:1016180043F40063136004E00268136843F48063D2
:10162800136003685A6812F4006F0ED011F5803FFA
:1016380007D0012905D0082903D0102901D0202975
:1016480003D15A6842F480525A6000230793036812
:101658005A6907929B690793079B2DE7438D9BB2B5
:101668005BB1426A036812781A61436A01334362C4
:10167800438D9BB2013B9BB243857047438D9BB220
:101688005BB103681A69436A1A70436A013343629B
:10169800438D9BB2013B9BB24385704782B00023C8
:1016A80001930E4B1B68DB080D4AA2FB03231B0AA0
:1016B80003EB83030193019B013B0193019B33B12E
:1016C80003681B6813F4007FF5D1002004E0036C65
:1016D80043F020030364012002B070472400002077
:1016E80089B5F81403685A6912F4806F01D1002093
:1016F80070476FF480625A6100230363202280F8E8
:101708003D2080F83E30026C42F00402026480F80A
:101718003C3001207047C36AB3F52A0F04D0C36A6E
:10172800B3F12A4F03D070470123C36270470823DF
:10173800C362F8E72DE9F04107460D4690461E467C
:1017480022E0FEF703FF069BC01AB04200D8DEB9BC
:1017580000233B63202287F83D2087F83E303A6C0F
:1017680042F020023A6487F83C3001201AE03B68D6
:101778009C6925EA0404A4B2B4FA84F46409A04577
:101788000FD1B6F1FF3FDCD1C5F30743012BEED1F2
:101798003B685C6925EA0404A4B2B4FA84F46409D9
:1017A800EDE70020BDE8F0812DE9F04105460E4641
:1017B800174698463DE01A6842F400721A602B6892
:1017C8006FF480625A6100232B63202285F83D2044
:1017D80085F83E302A6C42F004022A6485F83C30D1
:1017E800012034E0FEF7B2FEA0EB0800B84200D8B2
:1017F800FFB900232B63202285F83D2085F83E3071
:101808002A6C42F020022A6485F83C3001201EE050
:101818002B689C6926EA0404A4B2003C18BF012482
:10182800A4B12B685A6912F4806FC4D1B7F1FF3F95
:10183800D8D1C6F30743012BEAD12B685C6926EAA5
:101848000404A4B2003C18BF0124E9E70020BDE865
:10185800F0810000F0B583B004460D4616461F46D9
:10186800C36A082B0DD0012B0BD013F5803F08D08D
:10187800036B122B0AD10268136843F48073136058
:1018880004E02268136843F48073136000973346BA
:1018980000224FF001112046FFF74CFF80B9236961
:1018A800B3F5804F16D1236805F0FE051D613B4650
:1018B800324613492046FFF777FFF8B903B0F0BD69
:1018C80023681B6813F4807F02D04FF400732364ED
:1018D8000320F3E7EB11226803F0060343F0F0035B
:1018E80013613B46324607492046FFF75DFF18B9AA
:1018F8002368EDB21D61DAE70120DFE70120DDE7AB
:10190800020001000800010070B504460D461646A5
:1019180023685B6913F0800F1CD12046FFF7E2FEB5
:10192800D0B9B5F1FF3FF3D0FEF710FE801BA842F7
:1019380001D8002DECD100232363202284F83D2018
:1019480084F83E30226C42F02002226484F83C3055
:10195800012000E0002070BD0120FCE72DE9F047E0
:1019680084B004460D46164699460C9FDDF834802F
:101978000268136843F4806313600368196841F4CC
:1019880080711960CDF800803B4600224FF00111AC
:10199800FFF7D0FE70B95FFA85FA236805F0FE05F7
:1019A8001D6143463A4641492046FFF7FDFE68B1AE
:1019B800012008E023681B6813F4807F02D04FF4ED
:1019C80000732364032004B0BDE8F0870023039369
:1019D80023685A6903929B690393039B42463946DD
:1019E8002046FFF791FF80B9B9F1010F18D123689C
:1019F800F6B21E61424639462046FFF785FF68B3B6
:101A0800236C042B24D00120DDE7236C042B01D0A8
:101A18000120D8E72268136843F400731360F7E7DE
:101A28002368320A1A61424639462046FFF76CFF9E
:101A380018B92368F6B21E61DCE7236C042B01D0C9
:101A48000120C0E72268136843F400731360F7E7C6
:101A58002268136843F400731360D4E7226813689C
:101A680043F480731360CDF800803B4600224FF0AA
:101A780001112046FFF75EFE68B922684AF00103AB
:101A8800136143463A4609492046FFF78DFE002870
:101A980099D0012097E723681B6813F4807F02D050
:101AA8004FF40073236403208DE700BF0200010098
:101AB80070B504460D46164623685B6913F0040F9B
:101AC8001CD12046FFF70EFED0B9B5F1FF3FF3D089
:101AD800FEF73CFD801BA84201D8002DECD1002365
:101AE8002363202284F83D2084F83E30226C42F0A3
:101AF8002002226484F83C30012000E0002070BD00
:101B08000120FCE770B505460C4616462B68596956
:101B180011F0400F29D1596911F0100F15D1FEF7B6
:101B280015FD801BA04201D8002CEFD100232B63A8
:101B3800202285F83D2085F83E302A6C42F02002AC
:101B48002A6485F83C30012070BD6FF010025A619C
:101B580000232B63202285F83D2085F83E302A6C2F
:101B68002A6485F83C300120EEE70020ECE700000D
:101B7800002800F0CC80F8B5044690F83D30002BE2
:101B880077D0242384F83D302268136823F00103BA
:101B980013602268136843F40043136022681368D3
:101BA80023F40043136001F059FB62685A4B9A42D0
:101BB80064D85A4B98428CBF00230123002B40F075
:101BC800A880574DA5FB0035AF0C2668716821F039
:101BD8003F0141EA9541716021680B6A23F03F0398
:101BE80065684D4A95424FD87A1C13430B622568A5
:101BF800E96921F44F4121F0FF016368464A9342A5
:101C08004CD801385B00B0FBF3F0013040F6FC73B0
:101C1800184278D0C0F30B030B43EB6121680B68C3
:101C280023F0C003E269206A024313430B60216872
:101C38008B6823F4034323F0FF032269E06802431F
:101C480013438B602168CB6823F0FF036269A069A6
:101C580002431343CB602268136843F00103136007
:101C680000202064202384F83D30206384F83E005F
:101C7800F8BD80F83C3002F0ADFC82E7294B984271
:101C88008CBF0023012399E74FF4967202FB07F2F9
:101C9800254DA5FB025292090132A6E7A268BAB9FE
:101CA800461E03EB4307B6FBF7F60136C6F30B06F1
:101CB800B6FA86F6760946BBC2B9421E03EB430361
:101CC800B2FBF3F20132C2F30B0242F40043A3E782
:101CD800461E03EB830707EB8707B6FBF7F60136CB
:101CE800C6F30B06B6FA86F67609E4E7421E03EB5E
:101CF800830303EB8303B2FBF3F20132C2F30B025B
:101D080042F4404388E7042386E7012384E701205F
:101D180070470120ACE700BFA08601007F841E0049
:101D280083DE1B43FF083D00D34D62102DE9F043CD
:101D380085B004460F46914698460C9EFEF706FC71
:101D4800054694F83D00C0B2202804D00227384642
:101D580005B0BDE8F0830095192301224F492046BC
:101D6800FFF7E8FC002840F0928094F83C30012B03
:101D780000F08F80012384F83C3023681A6812F041
:101D8800010F03D11A6842F001021A602268136831
:101D980023F400631360212384F83D30102384F872
:101DA8003E3000232364C4F82490A4F82A80638D6D
:101DB80023853B4BE3622B46324639462046FFF7E4
:101DC80049FD0746002866D10023039323685A6912
:101DD80003929B690393039B11E0236C042B01D0AE
:101DE8000127B4E72268136843F400731360F7E728
:101DF8002A4631462046FFF75BFE00282ED1238D68
:101E0800002B36D02A4631462046FFF77DFD0028B4
:101E1800E3D1626A236812781A61616A4B1C6362B3
:101E2800638D9BB2013B9BB26385238D013B9BB2C3
:101E380023852268506910F0040FD9D0002BD7D021
:101E48004B781361636A01336362638D9BB2013B14
:101E58009BB26385238D013B2385C9E7236C042B43
:101E680001D0012773E72268136843F400731360F5
:101E7800F7E72268136843F400731360202384F89B
:101E88003D30002384F83E3084F83C305FE7022779
:101E98005DE702275BE7012759E700BF0200100052
:101EA8000000FFFF2DE9F04387B004460F46904637
:101EB8009946109EFEF74AFB054694F83D00C0B2CD
:101EC800202804D00227384607B0BDE8F0830095E3
:101ED800192301229D492046FFF72CFC002840F0D9
:101EE800448194F83C30012B00F04181012384F8AF
:101EF8003C3023681A6812F0010F03D11A6842F0C7
:101F080001021A602268136823F400631360222315
:101F180084F83D30402384F83E30002323640E9B30
:101F28006362BDF83C306385638D2385884BE3622B
:101F3800019500964B46424639462046FFF70EFD6E
:101F48000746002840F01581238D5BB9029323686A
:101F58005A6902929A690292029A1A6842F40072C5
:101F68001A6098E0012B0AD0022B1AD0002305939F
:101F780023685A6905929B690593059B8BE0226843
:101F8800136823F4806313600023039323685A695A
:101F980003929A690392039A1A6842F400721A60CB
:101FA80079E02268136823F4806313602268136859
:101FB80043F4006313600023049323685A6904926E
:101FC8009B690493049B66E02A4631462046FFF746
:101FD80099FD002840F0CF8023681A69636A1A7057
:101FE800636A01336362238D013B2385638D9BB252
:101FF800013B9BB263854EE000953346002255496C
:102008002046FFF797FB002840F0B7802268136846
:1020180043F40073136023681A69636A1A70626A6A
:10202800531C6362238D013B2385638D9BB2013B67
:102038009BB2638523681B695370636A01336362CB
:10204800238D013B2385638D9BB2013B9BB2638546
:1020580021E02268136843F40073136023681A6947
:10206800636A1A70626A531C6362238D013B23857D
:10207800638D9BB2013B9BB2638523681B695370D8
:10208800636A01336362238D013B2385638D9BB2B1
:10209800013B9BB26385238D002B5DD0032B2BD88E
:1020A800012B91D0022BA7D0009533460022294955
:1020B8002046FFF73FFB002861D12268136823F40C
:1020C8008063136023681A69636A1A70636A01334C
:1020D8006362238D013B2385638D9BB2013B9BB2D9
:1020E80063850095334600221A492046FFF722FBF4
:1020F8000028AED00127E6E62A4631462046FFF7FB
:1021080001FD00283DD123681A69636A1A70626A62
:10211800531C6362238D013B2385638D9BB2013B76
:102128009BB263852368596911F0040FB3D01B690A
:102138005370636A01336362238D013B2385638D8A
:102148009BB2013B9BB26385A5E700BF020010006C
:102158000000FFFF04000100202384F83D30002325
:1021680084F83E3084F83C30ADE60227ABE602271F
:10217800A9E60127A7E60127A5E60127A3E6012787
:10218800A1E601279FE600BF70477047704708B572
:1021980090F83D30DAB2438D9BB283B1416A03684F
:1021A80009781961436A01334362438D9BB2013B4D
:1021B8009BB24385438D9BB20BB9292A00D008BD39
:1021C8000268536823F48063536021230363282340
:1021D80080F83D30FFF7DAFFF1E7704708B590F86F
:1021E8003D30DAB2438D9BB283B103681969436A03
:1021F8001970436A01334362438D9BB2013B9BB222
:102208004385438D9BB20BB92A2A00D008BD0268CA
:10221800536823F48063536022230363282380F8E0
:102228003D30FFF7DAFFF1E7704700B583B090F86B
:102238003D3003F02803282B0CD0002301930268BB
:102248005169019192690192019A80F83C3003B07A
:102258005DF804FB0268536823F48063536011F04F
:10226800040F0BD0002311F0800F09D182890021BF
:1022780080F83C101946FFF7D7FFE8E70123F2E79B
:10228800028BF4E77047704708B5C26A90F83D3092
:10229800DBB2212B00D008BD438D9BB263B1426AEB
:1022A800036812781A61436A01334362438D9BB213
:1022B800013B9BB24385EEE7082A04D0202A02D0CE
:1022C80012F5803F19D10268536823F4E063536024
:1022D8000268136843F40073136000230363202328
:1022E80080F83D3090F83E30DBB2402B15D000230B
:1022F80080F83E30FFF748FFCDE70268536823F4C3
:10230800E063536011230363002380F83E302023E9
:1023180080F83D30FFF738FFBDE7002380F83E30F6
:10232800FFF7B1FFB7E708B590F83D30026D9AB9ED
:10233800C36C012B08D0836CC3F3072302681361B5
:10234800036D0133036508BD836C0268DBB213615A
:10235800036D02330365F6E7DBB2026D012A23D071
:10236800026D022AEFD1222B26D0428D92B20AB1F9
:10237800212B2AD0428D92B2002AE4D1212BE2D11E
:102388000268536823F4E06353600268136843F4F7
:102398000073136000230363202280F83D2080F837
:1023A8003E30FFF770FFCEE7836C0268DBB2136143
:1023B800036D01330365C6E70268136843F480734D
:1023C8001360036D01330365BDE7426A0368127841
:1023D8001A61436A01334362438D9BB2013B9BB24E
:1023E8004385B0E710B590F83D30DBB290F83E2059
:1023F800D2B2C46A018D09B9212B04D0212B3BD05C
:10240800402A37D010BD082C04D0202C02D014F557
:10241800803F19D10268536823F4E063536002686F
:10242800136843F40073136000230363202380F8C8
:102438003D3090F83E30DBB2402B15D0002380F8B9
:102448003E30FFF7A1FEDDE70268536823F4E0633E
:10245800536011230363002380F83E30202380F863
:102468003D30FFF791FECDE7002380F83E30FFF7BF
:102478000AFFC7E7222BC5D1438D9BB22BB902684F
:10248800536823F480635360BCE790F83E30DBB2B6
:10249800402B0CD0426A036812781A61436A0133F0
:1024A8004362438D9BB2013B9BB24385AAE7FFF78A
:1024B8003AFFA7E7704708B5C26A438D9BB2042B61
:1024C80014D0438D9BB2032B22D0438D9BB2022B99
:1024D80039D003681A69436A1A70436A0133436240
:1024E800438D9BB2013B9BB2438510E00268536861
:1024F80023F48063536003681A69436A1A70436A55
:1025080001334362438D9BB2013B9BB2438508BDB7
:1025180001684B6823F480634B60042A06D0022AC2
:1025280004D00268136823F48063136003681A698F
:10253800436A1A70436A01334362438D9BB2013B7D
:102548009BB24385E3E7012A0BD0102A09D0042A5D
:1025580038D0022A36D00268136843F40073136037
:1025680004E00268136823F48063136003681A693F
:10257800436A1A70426A531C4362438D9BB2013B03
:102588009BB2438503681B695370436A01334362F6
:10259800438D9BB2013B9BB243850268536823F489
:1025A80040735360202380F83D3090F83E30DBB212
:1025B800402B0DD0002380F83E3012230363FFF731
:1025C800E4FDA4E70268136843F480631360CDE771
:1025D800002380F83E300363FFF76CFF97E77047EE
:1025E80090F83D30DBB2222B00D0704710B504467E
:1025F800438D9BB2032B16D903681A69436A1A7074
:10260800436A01334362438D9BB2013B9BB24385CE
:10261800438D9BB2032B00D010BD0268536823F48E
:1026280080635360F8E7C26A022AF5D0012BF3D819
:10263800FFF734F800282ED12268136823F480634A
:1026480013602268536823F4E063536023681A69AF
:10265800636A1A70636A01336362638D9BB2013BDC
:102668009BB26385202384F83D3094F83E30DBB27A
:10267800402B08D0002384F83E30122323632046E1
:10268800FFF783FDC8E7002384F83E302363204624
:10269800FFF710FFC0E72268536823F4E063536034
:1026A80023681A69636A1A70636A01336362638D07
:1026B8009BB2013B9BB26385202384F83D30002305
:1026C80084F83E302046FFF78AFFA5E770470000F0
:1026D80000B583B000230193806B90F83D20D2B2FF
:1026E800324B1B68DB083249A1FB03131B0A03EBBF
:1026F8008303C3EBC3030193019B43B1019B013BDC
:10270800019303681B6813F4007FF5D103E0036CA1
:1027180043F020030364436B0BB10021D963836B3F
:102728000BB10021D96301680B6823F480630B6047
:1027380000234385436B0BB100211965836B0BB1F3
:102748000021196501680B6823F001030B6090F8FC
:102758003D30DBB2602B0ED002F02802282A14D0BC
:10276800202380F83D30002380F83E30FFF737FF04
:1027780003B05DF804FB202380F83D30002380F887
:102788003E300364FFF7A2FFF2E70268136843F0E4
:10279800010313600268136843F480631360002325
:1027A8000363282380F83D30E0E700BF24000020C1
:1027B80089B5F81410B5044690F83D30DBB290F8AE
:1027C8003E20D2B2102A36D0402A34D003F0280254
:1027D800282A38D02268526812F4006F07D1602B7B
:1027E80005D0202384F83D30002384F83E300023B0
:1027F800236323685A6812F4006F48D05A6822F499
:1028080000625A60626B92F83530DBB2012B20D03F
:10281800444B1365606BFEF7C0FB002849D0226863
:10282800136823F001031360202384F83D30606BA4
:10283800036D98473DE0222BC8D121680A6822F42D
:1028480000620A60C2E700232363282384F83D302E
:10285800CFE7A36B334A1A65A06BFEF79EFB40B324
:1028680023685A6912F0400F05D01A69636A1A7012
:10287800636A013363622268136823F001031360FB
:10288800202384F83D30A06B036D984711E094F83D
:102898003D20D2B2602A1FD05A6912F0400F05D0ED
:1028A8001A69636A1A70636A013363622046FFF724
:1028B80096FE236C13F00F0F04D02268536823F49C
:1028C800E063536094F83D30DBB2226C12F0040FE1
:1028D80001D0282B18D010BD202284F83D200022DA
:1028E80022645A6912F0400F05D01A69636A1A7097
:1028F800636A013363622268136823F0010313607B
:102908002046FFF7E3FED4E7074BE3620023236387
:10291800202284F83D2084F83E302046FFF7B2FCA0
:10292800D9E700BFD92600080000FFFF30B583B003
:10293800044690F83D50EDB20268536823F4E06312
:1029480053600023019303685A6901921A6842F0A0
:1029580001021A60019B0268136823F48063136004
:1029680003685A6812F4006F38D0222D21D02A2D1E
:102978001FD0426B1268526892B24285428D92B261
:102988001AB1026C42F0040202645A6822F400622E
:102998005A60606BFEF702FC01281FD0636B444A43
:1029A8001A65606BFEF7F9FAC0B1606B036D984762
:1029B80014E0A26B1268526892B26285628D92B27C
:1029C8001AB1226C42F0040222645A6822F40062AE
:1029D8005A60A06BFEF7E2FB012842D1638D9BB2DF
:1029E80033B323685A6912F0040F0AD01A69636A6C
:1029F8001A70636A01336362638D9BB2013B9BB2B9
:102A0800638523685A6912F0400F0AD01A69636A0D
:102A18001A70636A01336362638D9BB2013B9BB298
:102A28006385638D9BB21BB1236C43F0040323645D
:102A3800236C13BB2A2D25D094F83D30DBB2282B0C
:102A480029D0236B222B01D0222D19D100232363F7
:102A5800202284F83D2084F83E302046FFF7BDFB55
:102A68000EE0A36B124A1A65A06BFEF796FA0028CF
:102A7800B4D0A06B036D9847B0E72046FFF79AFEE5
:102A880003B030BD00232363282384F83D3020465B
:102A9800FFF7A3FBD0E7074BE36200232363202261
:102AA80084F83D2084F83E302046FFF7EBFBE7E74B
:102AB800D92600080000FFFFF8B5044602685568EB
:102AC800C66A90F83E30DBB290F83D10C8B2102BC1
:102AD80013D0402B11D0236C002B7AD053690021DE
:102AE80013F0020F78D015F4007F75D0236C03B172
:102AF80091692046FFF799FBF8BDD2F818C05169D3
:102B080011F0010705D1B6F52A0FF5D0B6F12A4F15
:102B1800F2D017B115F4007F29D111F0080F02D0B7
:102B280015F4007F2AD111F0020F02D015F4007FAE
:102B380028D11CF0040F31D0526812F4006FDBD199
:102B480011F0800F05D015F4806F02D011F0040F3A
:102B58001CD011F0040FCFD015F4007FCCD0212861
:102B680018D0402BC8D12046FFF7DDFBC4E720462C
:102B7800FEF7D1FD2046FEF705FCBDE72046FEF72F
:102B880055FCB9E72046FEF766FCB5E72046FFF797
:102B980029FCB1E72046FFF777FBADE7536813F44C
:102BA800006FA9D111F0400F05D015F4806F02D045
:102BB80011F0040F09D011F0040F9DD015F4007F17
:102BC8009AD02046FFF777FC96E72046FFF708FDE6
:102BD80092E79169536983E713F0100F02D015F457
:102BE800007F18D121281AD0292818D013F0400FB7
:102BF80005D015F4806F02D013F0040F28D013F01D
:102C0800040F3FF479AF15F4007F3FF475AF204609
:102C1800FEF734FD70E72046FFF788FE6CE713F0F7
:102C2800800F05D015F4806F02D013F0040F0BD07D
:102C380013F0040F3FF460AF15F4007F3FF45CAF6E
:102C48002046FEF70BFD57E72046FFF7A0FA53E7AB
:102C58002046FFF7C3FA4FE7002800F0DF8170B580
:102C680082B00446036813F0010F3BD0A64B9B6863
:102C780003F00C03042B2CD0A34B9B6803F00C032C
:102C8800082B21D06368B3F5803F4FD0B3F5A02F50
:102C980052D09D4B1A6822F480321A601A6822F4C6
:102CA80080221A606368002B50D0FDF74FFC054660
:102CB800954B1B6813F4003F14D1FDF747FC401BEC
:102CC8006428F5D90320B0E18F4B5B6813F4800FBB
:102CD800D8D08D4B1B6813F4003F03D06368002BDA
:102CE80000F09E81236813F0020F54D0864B9B6836
:102CF80013F00C0F3ED0844B9B6803F00C03082B99
:102D080033D0E368002B67D0804B01221A60FDF7AF
:102D18001DFC05467C4B1B6813F0020F53D1FDF7D1
:102D280015FC401B0228F5D903207EE1764A13687A
:102D380043F480331360B5E7734B1A6842F480227A
:102D48001A601A6842F480321A60ABE7FDF7FEFB9E
:102D580005466D4B1B6813F4003FC3D0FDF7F6FB27
:102D6800401B6428F5D903205FE1674B5B6813F4C7
:102D7800800FC6D1644B1B6813F0020F03D0E368C1
:102D8800012B40F04F81604A136823F0F803216952
:102D980043EAC1031360236813F0080F40D0636946
:102DA80063B35B4B01221A60FDF7D0FB0546564B17
:102DB8005B6F13F0020F33D1FDF7C8FB401B0228ED
:102DC800F5D9032031E1504A136823F0F80321694B
:102DD80043EAC1031360DEE74C4B00221A60FDF79B
:102DE800B5FB0546484B1B6813F0020FD3D0FDF71F
:102DF800ADFB401B0228F5D9032016E1444B002205
:102E08001A60FDF7A3FB05463F4B5B6F13F0020FFB
:102E180006D0FDF79BFB401B0228F5D9032004E1EF
:102E2800236813F0040F78D0374B1B6C13F0805FC6
:102E38000DD100230193344B1A6C42F080521A646E
:102E48001B6C03F080530193019B012500E00025D2
:102E5800304B1B6813F4807F21D0A368012B32D03C
:102E6800052B36D0284B1A6F22F001021A671A6F09
:102E780022F004021A67A368002B34D0FDF766FB22
:102E88000646214B1B6F13F0020F45D1FDF75EFB81
:102E9800801B41F288339842F3D90320C5E01D4ACC
:102EA800136843F480731360FDF750FB0646194B13
:102EB8001B6813F4807FD0D1FDF748FB801B0228E4
:102EC800F5D90320B1E0104A136F43F001031367EB
:102ED800D1E70D4B1A6F42F004021A671A6F42F0DD
:102EE80001021A67C7E7FDF731FB0646064B1B6F61
:102EF80013F0020F10D0FDF729FB801B41F2883335
:102F08009842F3D9032090E000380240000047427D
:102F1800800E474200700040EDB9A369002B00F015
:102F28008380494A926802F00C02082A51D0022B89
:102F380017D0464B00221A60FDF708FB0446424BA7
:102F48001B6813F0007F42D0FDF700FB001B02282E
:102F5800F5D9032069E03C4A136C23F080531364CD
:102F6800DBE73A4B00221A60FDF7F0FA0546364BCC
:102F78001B6813F0007F06D0FDF7E8FA401B022813
:102F8800F5D9032051E0E369226A1343626A43EAF0
:102F98008213A26A5208013A43EA0243E26A43EA08
:102FA8000263294A5360294B01221A60FDF7CEFAC1
:102FB8000446254B1B6813F0007F06D1FDF7C6FABF
:102FC800001B0228F5D903202FE000202DE0002067
:102FD8002BE0012B2BD01C4B5B6803F48001E269CA
:102FE800914226D103F03F02216A8A4223D1616AC5
:102FF80047F6C0721A40B2EB811F1ED103F440316C
:10300800A26A5208013AB1EB024F18D103F070637B
:10301800E26AB3EB026F14D1002006E0012070478A
:10302800012002E0012000E0002002B070BD012074
:10303800FBE70120F9E70120F7E70120F5E7012088
:10304800F3E70120F1E700BF003802406000474283
:10305800F8B5244B9B6803F00C03042B3DD0082BD8
:103068003DD1204B5A6802F03F025B6813F4800F91
:1030780012D01C4B5968C1F3881100231A48A1FBD0
:103088000001FDF79DF8174B5B68C3F3014301335B
:103098005B00B0FBF3F023E0124B5B68C3F38813CB
:1030A8005C010025E41A65F10005AE0146EA946664
:1030B800A701381B66EB0501CC0044EA5074C50033
:1030C800E81844F100018B0243EA90538402204639
:1030D80019460023FDF774F8D5E7034800E00348D4
:1030E800F8BD00BF00380240005900010024F40078
:1030F800002800F09B8070B50D4604464F4B1B68B6
:1031080003F007038B4208D2CBB24C4A1370136802
:1031180003F007038B4240F08B80236813F0020F03
:1031280017D013F0040F04D0454A936843F4E053D2
:103138009360236813F0080F04D0414A936843F45E
:10314800604393603E4A936823F0F003A1680B4301
:103158009360236813F0010F32D06368012B21D0EC
:103168009A1E012A25D9364A126812F0020F61D038
:1031780033498A6822F0030213438B60FDF7E6F9AE
:1031880006462F4B9B6803F00C036268B3EB820F73
:1031980016D0FDF7DBF9801B41F288339842F0D94D
:1031A800032042E0264A126812F4003FE0D10120D1
:1031B8003BE0234A126812F0007FD9D1012034E0A5
:1031C8001E4B1B6803F00703AB4207D9EAB21B4B3F
:1031D8001A701B6803F00703AB422DD1236813F064
:1031E800040F06D0164A936823F4E053E1680B43B2
:1031F8009360236813F0080F07D0114A936823F4EB
:103208006043216943EAC1039360FFF721FF0C4B38
:103218009B68C3F303130B4AD35CD8400A4B18606E
:103228000A4B1868FDF748F9002070BD0120704767
:103238000120FAE70120F8E70120F6E7003C024008
:1032480000380240B04C0008240000200400002090
:10325800014B1868704700BF2400002008B5FFF72D
:10326800F7FF044B9B68C3F38223034AD35CD8401F
:1032780008BD00BF00380240C04C000808B5FFF781
:10328800E7FF044B9B68C3F34233034AD35CD8403F
:1032980008BD00BF00380240C04C000830B4036AC3
:1032A800056A25F001050562846924F0F00444EA02
:1032B800021423F00A030B438461036230BC704795
:1032C80030B4056A25F0100505628469036A24F4A0
:1032D800704444EA023423F0A00343EA01138461F2
:1032E800036230BC7047836823F070030B4343F0DC
:1032F800070383607047000090F83D30DBB2012B74
:1033080037D1022380F83D300268D36843F00103C7
:10331800D3600368194A934220D0B3F1804F1DD07F
:10332800A2F57C42934219D002F58062934215D0EF
:1033380002F58062934211D002F5784293420DD093
:1033480002F57052934209D0A2F59432934205D007
:103358001A6842F001021A60002070479A6802F069
:103368000702062A07D01A6842F001021A600020F4
:103378007047012070470020704700BF00000140DF
:103388007047704770477047704710B50446036828
:103398001A6912F0020F11D0DA6812F0020F0DD07C
:1033A8006FF002021A610123037703689B6913F027
:1033B800030F70D0FFF7E6FF0023237723681A690D
:1033C80012F0040F12D0DA6812F0040F0ED06FF06A
:1033D80004021A610223237723689B6913F4407F50
:1033E8005FD02046FFF7CEFF0023237723681A69B2
:1033F80012F0080F12D0DA6812F0080F0ED06FF032
:1034080008021A61042323772368DB6913F0030F8A
:103418004ED02046FFF7B6FF0023237723681A69AA
:1034280012F0100F12D0DA6812F0100F0ED06FF0F1
:1034380010021A61082323772368DB6913F4407F9D
:103448003DD02046FFF79EFF0023237723681A69A3
:1034580012F0010F03D0DA6812F0010F36D1236899
:103468001A6912F0800F03D0DA6812F0800F34D195
:1034780023681A6912F0400F03D0DA6812F0400F7F
:1034880032D123681A6912F0200F03D0DA6812F0DB
:10349800200F30D110BDFFF774FF2046FFF773FFF0
:1034A8008AE72046FFF76DFF2046FFF76CFF9BE792
:1034B8002046FFF766FF2046FFF765FFACE720468A
:1034C800FFF75FFF2046FFF75EFFBDE76FF00102E1
:1034D8001A612046FFF754FFC1E76FF080021A61B6
:1034E800204600F070F9C3E76FF040021A612046E9
:1034F800FFF74AFFC5E76FF020021A61204600F087
:1035080061F9C7E70368304A904212D0B0F1804FA2
:103518000FD0A2F57C4290420BD002F58062904217
:1035280007D002F58062904203D002F578429042BB
:1035380003D123F070034A681343234A90422AD0E8
:10354800B0F1804F27D0A2F57C42904223D002F5FB
:10355800806290421FD002F5806290421BD002F533
:103568007842904217D002F57052904213D002F57B
:10357800806290420FD002F5806290420BD0A2F593
:103588009832904207D002F58062904203D002F54B
:103598008062904203D123F44073CA68134323F036
:1035A80080034A69134303608B68C3620B688362B4
:1035B800054B984203D003F58063984201D10B690B
:1035C80003630123436170470000014040B310B515
:1035D800044690F83D30F3B1022384F83D3021468B
:1035E80051F8040BFFF78EFF012384F8463084F866
:1035F8003E3084F83F3084F8403084F8413084F815
:10360800423084F8433084F8443084F8453084F8F4
:103618003D30002010BD80F83C3001F01DFADBE79A
:103628000120704710B4846824F47F4442EA0322DE
:103638000A43224382605DF8044B704790F83C309F
:10364800012B78D010B50446012380F83C300223C2
:1036580080F83D300268936823F47F4323F07703B2
:1036680093600B68602B4CD029D8402B54D00CD9D0
:10367800502B22D1CA6849680068FFF70FFE502115
:103688002068FFF730FE002005E0202B0DD009D977
:10369800302B0AD00120012384F83D30002384F820
:1036A8003C3010BD0BB1102B05D119462068FFF72F
:1036B8001AFE0020EFE70120EDE70120EBE7B3F564
:1036C800805F34D0B3F5005F0CD1CB684A68896855
:1036D8000068FFF7A7FF2268936843F4804393606C
:1036E8000020D8E7702B24D1CB684A688968006825
:1036F800FFF798FF2268936843F0770393600020F0
:10370800C9E7CA6849680068FFF7DAFD60212068E0
:10371800FFF7E9FD0020BEE7CA6849680068FFF7BF
:10372800BDFD40212068FFF7DEFD0020B3E7002043
:10373800B1E70120AFE702207047000090F83C3065
:10374800012B3BD030B4012380F83C30022380F8B1
:103758003D3003685C689D6824F070040A68224361
:103768005A600368164A93421AD0B3F1804F17D0B3
:10377800A2F57C42934213D002F5806293420FD0A7
:1037880002F5806293420BD002F57842934207D04B
:1037980002F57052934203D0A2F59432934204D1B9
:1037A80025F080054A6815439D60012380F83D3067
:1037B800002380F83C30184630BC70470220704720
:1037C8000000014070477047026802F10C0353E89B
:1037D800003F23F0C0030C3242E800310029F3D146
:1037E800202380F83D307047026802F10C0353E84B
:1037F800003F23F490730C3242E800310029F3D1E2
:10380800026802F1140353E8003F23F00103143265
:1038180042E800310029F3D1036B012B05D02023A6
:1038280080F83E30002303637047026802F10C03FE
:1038380053E8003F23F010030C3242E8003100291E
:10384800F3D1ECE790F83D30DBB2212B01D0022018
:1038580070478368B3F5805F17D0036A5A1C026209
:103868001A7803685A60C38C9BB2013B9BB2C3842D
:103878004BB90268D36823F08003D3600268D36829
:1038880043F04003D360002070470369002BE4D164
:10389800036A1B880268C3F308035360036A023390
:1038A8000362E0E770B504460268136923F44053E5
:1038B800C1680B4313618368026913434269134368
:1038C800C2691A430168CB6823F4164323F00C033A
:1038D8001343CB600268536923F4407381690B4337
:1038E80053610368344A934206D002F580629342DA
:1038F80002D0FFF7B3FC01E0FFF7C0FCE369B3F5C2
:10390800004F2AD00026051846EB06012D1846EB75
:103918000101CB0043EA5573EA001546194663686E
:103928009A009B0F281846EB0101FCF749FC234D30
:10393800A5FB00325109642303FB11031B01323339
:10394800A5FB03235B0903F0F00202EB011203F06D
:103958000F03216813448B6070BD0026051846EBE1
:1039680006012D1846EB0101CB0043EA5573EA0026
:103978001546194662683346921846EB0303281821
:1039880046EB0101FCF71CFC0C4DA5FB003251096C
:10399800642303FB1103DB003233A5FB03235B091C
:1039A8005A0002F4F87202EB011203F007032168CF
:1039B80013448B60D0E700BF001001401F85EB5116
:1039C80058B310B5044690F83D300BB3242384F85F
:1039D8003D302268D36823F40053D3602046FFF7B4
:1039E80061FF2268136923F49043136122685369C5
:1039F80023F02A0353612268D36843F40053D36049
:103A080000202064202384F83D3084F83E3010BD27
:103A180080F83C3001F076F8D8E70120704790F83C
:103A28003D30DBB2202B16D1B9B1C2B190F83C3091
:103A3800012B16D001628284C284002303642122F0
:103A480080F83D2080F83C300168CA6842F0800266
:103A5800CA6018467047022070470120704701204D
:103A6800704702207047000038B590F83D30DBB24F
:103A7800202B38D10446002937D0002A37D090F8B7
:103A88003C30012B35D0012380F83C300162828420
:103A9800C28400250564212380F83D30436B164815
:103AA800D863636B15481864636B1548D864636BF7
:103AB8001D6520681346021D606BFDF7EFF923684A
:103AC8006FF040021A6084F83C50226802F1140337
:103AD80053E8003F43F08003143242E800310029E4
:103AE800F3D1002000E0022038BD0120FCE70120CE
:103AF800FAE70220F8E700BF0F3B0008773B000811
:103B0800833B0008704708B50346806B1B681B6839
:103B180013F4807F1AD10023C384026802F11403CE
:103B280053E8003F23F08003143242E800310029B3
:103B3800F3D1026802F10C0353E8003F43F040035D
:103B48000C3242E800310029F3D108BDFFF7DAFF53
:103B5800FBE708B50168CA6822F04002CA60202263
:103B680080F83D20FFF7CEFF002008BD704708B55C
:103B7800806BFFF7FBFF08BD704710B5846B2368A7
:103B88005A6994F83D30DBB2212B10D023685A696A
:103B980002F0400294F83E30DBB2222B11D0236CA5
:103BA80043F0100323642046FFF7E6FF10BD02F040
:103BB8008002002AEAD00023E3842046FFF704FEAF
:103BC800E4E7002AEBD00023E3852046FFF70CFE4C
:103BD800E5E708B5806B0023C385C384FFF7CCFFF6
:103BE80008BD704790F83E30DBB2222B67D183685E
:103BF800B3F5805F4DD0826AB3F5805F04D0002BA7
:103C080054D10369002B51D103685B681370836A30
:103C180001338362C38D9BB2013B9BB2C385002BEA
:103C28004FD100B583B00268D36823F02003D36076
:103C38000268D36823F48073D3600268536923F061
:103C480001035361202380F83E30036B012B33D1ED
:103C580000230363026802F10C0353E8003F23F0DA
:103C680010030C3242E800310029F3D103681A68C6
:103C780012F0100F06D0002201921A6801925B68B8
:103C88000193019B818DFFF7ACFF002003B05DF825
:103C980004FB0269002AAED1826A03685B68C3F339
:103CA80008031380836A02338362B3E703685B689F
:103CB80003F07F031370AAE700F066FAE5E7022035
:103CC800704700207047000030B583B00446026892
:103CD8001368D068516913F00F0505D113F0200F50
:103CE80002D010F0200F19D12DB111F0010119D116
:103CF80010F4907F16D1216B01297DD013F0800F2D
:103D080003D010F0800F40F0158113F0400F03D05E
:103D180010F0400F40F0128103B030BD2046FFF78D
:103D280061FFF9E713F0010F06D010F4807F03D08C
:103D3800226C42F00102226413F0040F04D019B17E
:103D4800226C42F00202226413F0020F04D019B16F
:103D5800226C42F00402226413F0080F07D010F01E
:103D6800200F00D119B1226C42F008022264226CA3
:103D7800002AD1D013F0200F02D010F0200F29D143
:103D880023685B6903F04003226C12F0080F00D12E
:103D980063B32046FFF728FD23685B6913F0400FE3
:103DA80020D0226802F1140353E8003F23F04003B7
:103DB800143242E800310029F3D1A36B73B1614A90
:103DC8001A65A06BFDF7E9F80028A5D0A06B036D74
:103DD8009847A1E72046FFF705FFD1E72046FFF700
:103DE800CBFE99E72046FFF7C7FE95E72046FFF789
:103DF800C3FE002323648FE713F0100F3FF47EAF58
:103E080010F0100F3FF47AAF002301931368019369
:103E180053680193019B536913F0400F50D0A26B74
:103E280013685B689BB2002B3FF476AFA18D994273
:103E38007FF672AFE385D369B3F5807F37D0226808
:103E480002F10C0353E8003F23F480730C3242E87C
:103E580000310029F3D1226802F1140353E8003F2E
:103E680023F00103143242E800310029F3D122681B
:103E780002F1140353E8003F23F04003143242E8F0
:103E880000310029F3D1202384F83E300023236336
:103E9800226802F10C0353E8003F23F010030C32B0
:103EA80042E800310029F3D1A06BFDF72CF8A18D71
:103EB800E38D9BB2C91A89B22046FFF792FE2BE721
:103EC800A18DE38D9BB2C91A89B2E38D9BB2002BF9
:103ED8003FF422AF00293FF41FAF226802F10C0320
:103EE80053E8003F23F490730C3242E80030002876
:103EF800F3D1226802F1140353E8003F23F00103D1
:103F0800143242E800300028F3D1202384F83E30F0
:103F180000232363226802F10C0353E8003F23F0D7
:103F280010030C3242E800300028F3D12046FFF796
:103F380058FEF1E62046FFF785FCEDE62046FFF740
:103F480008FEE9E6DB3B0008034681628285C285FC
:103F580000201864222283F83E2083F83C00196868
:103F6800CA6842F48072CA6019684A6942F001025C
:103F78004A611A68D36843F02003D360704708B5D4
:103F880090F83E30DBB2202B0DD171B17AB190F8A8
:103F98003C30012B0DD0012380F83C300023036313
:103FA800FFF7D2FF00E0022008BD0120FCE7012056
:103FB800FAE70220F8E7000000B585B0B0F5807F89
:103FC80001D94FF48070C0F300238DF80C301AB17A
:103FD80043F010038DF80C308DF80D000123009389
:103FE800022303AA0348415C0348FDF79FFE05B07E
:103FF8005DF804FB9C4C00083001002000B587B038
:10400800B1B90C22012302930221019105A9009163
:104018000849095C0848FDF745FF9DF815009DF81B
:1040280014301B0203F48073184307B05DF804FBD7
:104038001C22E7E79C4C00083001002072B63C4B7C
:104048001B78042B13D03A4B1B78032B17D0384B13
:104058001A78022A19D0364B5B78013B092B19D8FC
:10406800DFE803F01B26184518181818505B314B69
:1040780018702F4B02095A7000221A70E3E72D4B73
:1040880098702B4B01221A70E1E72A4B5870284B85
:1040980003221A7062B600BF70472AB1012AF9D10B
:1040A800234B04221A70F5E7214B03221A70F1E71B
:1040B800002AEFD110B582B01E4C2178C1F342001E
:1040C80062B601F00101FFF799FF8DF80700E37868
:1040D80033B1174B04221A7062B600BF02B010BD8C
:1040E80001220DF107011448FFF799FCF1E72AB105
:1040F800012ACFD10E4B04221A70CBE70C4B0322B6
:104108001A70C7E7002AC5D10A4B0122DA700022CB
:104118005A60074B04221A70BCE7002ABAD172B65B
:10412800044BDA70024B04221A7062B6B2E700BF81
:1041380008000020440000203403002030B40F4B56
:104148003C221A700E4A5268C3F801200D4A1168C1
:1041580055689468D068C3F80510C3F80950C3F8C7
:104168000D40C3F811001169C3F81510928AA3F81D
:1041780019203E22DA7630BC704700BF500000207C
:10418800440000201801002010B5054C2078FFF7E6
:1041980055FF012221460348FFF7F1FE10BD00BF7D
:1041A8006C0000203403002000B585B00023009384
:1041B8000193029303935648564A02604FF4003223
:1041C8004260836001220261027680F82030C36277
:1041D80051498162C3600B21C16180F8302043617D
:1041E800FCF754FA00286ED10023009301230193B1
:1041F8000623029369464648FCF736FC002865D139
:10420800012300930223019369464148FCF72CFCE3
:1042180000285ED1022300930323019369463C489A
:10422800FCF722FC002857D10323009304230193B1
:1042380069463748FCF718FC002850D1042300933E
:104248000523019369463248FCF70EFC002849D142
:10425800052300930623019369462D48FCF704FCC7
:10426800002842D106230093072301936946284872
:10427800FCF7FAFB00283BD107230093082301939E
:1042880069462348FCF7F0FBA8BB082300930923E1
:10429800019369461E48FCF7E7FB78BB09230093A6
:1042A8000A23019369461A48FCF7DEFB48BB0A2338
:1042B80000930B23019369461548FCF7D5FB18BBFF
:1042C80005B05DF804FB00F0C7FA8DE700F0C4FA0A
:1042D80096E700F0C1FA9DE700F0BEFAA4E700F007
:1042E800BBFAABE700F0B8FAB2E700F0B5FAB9E705
:1042F80000F0B2FAC0E700F0AFFAC6E700F0ACFA97
:10430800CCE700F0A9FAD2E700F0A6FAD8E700BF98
:1043180070000020002001400100000F70B58AB035
:10432800002305930693079308930993026803F102
:10433800804303F590339A4201D00AB070BD044619
:104348000025019503F58C335A6C42F480725A6447
:104358005A6C02F480720192019A02951A6B42F02B
:1043680004021A631A6B02F004020292029A03957D
:104378001A6B42F001021A631A6B02F001020392EF
:10438800039A04951A6B42F002021A631B6B03F03E
:1043980002030493049B01230593032606960795BD
:1043A80005A91C48FCF7FEFEFF2305930696079512
:1043B80005A91948FCF7F6FE05960696079505A97E
:1043C8001648FCF7EFFE1648164B036045608560FB
:1043D800C5604FF4806303614FF4006343614FF499
:1043E800005383614FF48073C36105624562FCF733
:1043F800EFFC58B90A4BA3639C63002211461220B4
:10440800FCF70EFC1220FCF73FFC96E700F024FABC
:10441800F0E700BF0008024000000240000402402C
:10442800B80000201064024010B582B00024009447
:104438001A4B1A6B42F480021A631A6B02F4800258
:104448000092009A01941A6B42F400121A631B6BD3
:1044580003F400130193019B224621460D20FCF72B
:10446800DFFB0D20FCF710FC224621462F20FCF72D
:10447800D7FB2F20FCF708FC224621463820FCF702
:10448800CFFB3820FCF700FC224621464620FCF7EB
:10449800C7FB4620FCF7F8FB02B010BD003802400D
:1044A80070B58AB00024059406940794089409947A
:1044B8000094344B1A6B42F004021A631A6B02F030
:1044C80004020092009A01941A6B42F080021A6367
:1044D8001A6B02F080020192019A02941A6B42F060
:1044E80001021A631A6B02F001020292029A039403
:1044F8001A6B42F002021A631A6B02F0020203926C
:10450800039A04941A6B42F008021A631B6B03F0B7
:1045180008030493049B1C4E012220213046FCF71B
:104528002BFF4FF6FE73059303250695079405A9FF
:104538001648FCF737FE4FF2DC33059306950794CF
:1045480005A93046FCF72EFE4FF41943059306954E
:10455800079405A90E48FCF725FE04230593069544
:10456800079405A90B48FCF71DFE2023059301239A
:1045780006930794089405A93046FCF713FE0AB081
:1045880070BD00BF0038024000040240000802402D
:1045980000000240000C024008B50B480B4B0360BA
:1045A8000B4B436000238360C3604FF48042026179
:1045B80043618361C3610362FDF7DAFA00B908BD9C
:1045C80000F04AF9FBE700BF300100200058004026
:1045D800A086010070B588B0002303930493059367
:1045E800069307930268354B9A4201D008B070BD14
:1045F800044600250195324E336B43F002033363C2
:10460800336B03F002030193019B4FF44063039360
:1046180012230493059506950423079303A92948B3
:10462800FCF7C0FD0295336C43F480033364336CAC
:1046380003F480030293029B2348244B03604FF04A
:10464800606343608560C5604FF4806303614561C2
:104658008561C5614FF4803303624562FCF7B8FB9E
:1046680028BB194BA3639C6319481A4B03604FF08E
:1046780060634360402383600023C3604FF480621B
:10468800026143618361C3614FF480320262436215
:10469800FCF79EFB70B90E4B63639C6300220221FA
:1046A8002120FCF7BDFA2120FCF7EEFA9EE700F086
:1046B800D3F8D6E700F0D0F8EDE700BF0058004087
:1046C800003802400004024084010020406002409B
:1046D800E4010020B860024030B595B030220021D6
:1046E80008A800F0BFFA00240394049405940694E3
:1046F800079401941A4B1A6C42F080521A641B6C8E
:1047080003F080530193019B0294164B1A6842F4FC
:1047180080421A601B6803F480430293029B0225BF
:10472800089501230B9310230C930E950F940823DF
:1047380010935423119312950423139308A8FEF79A
:104748008BFA0F230393049505944FF48053069333
:104758000793294603A8FEF7CBFC15B030BD00BF70
:10476800003802400070004008B5FBF7C9FEFFF7AB
:10477800B3FFFFF795FEFFF757FEFFF70DFFFFF7B3
:1047880013FD00F0A3F900F015F900F04BF92C48DF
:10479800FEF7B2FD2B48FEF7AFFD0B222A492B4846
:1047A800FBF7A0FF01222A492A48FFF7E8FB00226D
:1047B80011464FF48070FFF7FFFB012200214FF4F0
:1047C8008070FFF7F9FB002201214FF48070FFF79A
:1047D800F3FB012211464FF48070FFF7EDFB002236
:1047E80002214FF48070FFF7E7FB012202214FF40A
:1047F8008070FFF7E1FB002203214FF48070FFF780
:10480800DBFB012203214FF48070FFF7D5FB002268
:1048180004214FF48070FFF7CFFB012204214FF4ED
:104828008070FFF7C9FB002205214FF48070FFF765
:10483800C3FB012205214FF48070FFF7BDFBFEE7A3
:10484800440200208C020020180100207000002083
:104858006C000020340300207047000082B0002163
:1048680000910B4B5A6C42F480425A645A6C02F421
:1048780080420092009A01911A6C42F080521A64A8
:104888001B6C03F080530193019B02B0704700BF7B
:10489800003802407047FEE7FEE7FEE7FEE7704794
:1048A8007047704708B5FBF745FE08BD08B50248D4
:1048B800FCF786FB08BD00BF8401002008B502484C
:1048C800FBF7E7FF08BD00BF7000002008B5FFF741
:1048D80035FC084B1B783BB9074A13680133136052
:1048E8000648FEF752FD08BD1C2205490548FFF79A
:1048F800BBF8F1E7470000204800002044020020F0
:10490800500000203403002008B50248FEF7D4F810
:1049180008BD00BF3001002008B50248FFF7D4F9F0
:1049280008BD00BF3403002008B50248FEF72DFD7E
:1049380008BD00BF8C02002008B50248FCF740FB08
:1049480008BD00BFE401002008B50248FCF738FBA9
:1049580008BD00BFB800002008B50248FCF730FBCE
:1049680008BD00BFD40200200F49D1F8883043F4B5
:104978007003C1F888300D4B1A6842F001021A60C2
:10498800002098601A6822F0847222F480321A603B
:10499800074A5A601A6822F480221A60D8604FF0D9
:1049A80000638B60704700BF00ED00E000380240F4
:1049B8001030002400B587B00023029303930493BA
:1049C80005930093019316484FF0804202605322EA
:1049D8004260836040F2F312C26003618361FEF7B4
:1049E800F5FD98B94FF48053029302A90C48FEF7DD
:1049F80025FE70B9202300930023019369460848D7
:104A0800FEF79CFE40B907B05DF804FBFFF724FFF2
:104A1800E8E7FFF721FFEDE7FFF71EFFF3E700BF29
:104A28004402002008B50A480A4B036042F2CF034B
:104A380043600023836042F20F72C26003618023E7
:104A48008361FEF7C3FD00B908BDFFF705FFFBE76B
:104A58008C0200200020004000B583B00368B3F149
:104A6800804F05D0174A934217D003B05DF804FB76
:104A78000021009103F50E331A6C42F001021A640A
:104A88001B6C03F001030093009B0A461C20FCF7F3
:104A9800C7F81C20FCF7F8F8E7E7002101910A4B5A
:104AA8001A6C42F480721A641B6C03F480730193CD
:104AB800019B0A462D20FCF7B3F82D20FCF7E4F8FB
:104AC800D3E700BF002000400038024008B50B487B
:104AD8000B4B03604FF46113436000238360C36092
:104AE80003610C22426183614FF40043C361FEF706
:104AF80067FF00B908BDFFF7AFFEFBE734030020EE
:104B08000010014030B589B0002303930493059346
:104B180006930793026803F1804303F588339A42AA
:104B280001D009B030BD04460025019503F5943342
:104B38005A6C42F010025A645A6C02F01002019248
:104B4800019A02951A6B42F001021A631B6B03F07B
:104B580001030293029B4FF4C0630393022304935F
:104B68000595032306930723079303A91348FCF726
:104B780019FB1348134B03604FF000634360402355
:104B88008360C5604FF48063036145618561C561D9
:104B98004FF4403303624562FCF71AF958B9084BE1
:104BA80063639C63002203212520FCF739F8252044
:104BB800FCF76AF8B5E7FFF74FFEF0E700000240A0
:104BC800D4020020B8640240DFF834D0002103E0AA
:104BD8000C4B5B58435004310B480C4B42189A421B
:104BE800F6D30B4A02E0002342F8043B094B9A42F1
:104BF800F9D3FFF7B9FE00F011F8FFF7B5FD7047DC
:104C080000000220D84C00080000002028000020E6
:104C18002800002078030020FEE7000070B50D4D45
:104C28000D4C641BA4100026A64209D10B4D0C4C58
:104C380000F020F8641BA4100026A64205D170BD20
:104C480055F8043B98470136EEE755F8043B98477A
:104C58000136F2E7D04C0008D04C0008D04C0008D0
:104C6800D44C000802440346934200D1704703F82D
:104C7800011BF9E7F8B500BFF8BC08BC9E467047B1
:0C4C8800F8B500BFF8BC08BC9E467047A1
:104C9400000610160006101650545C5856520000B8
:104CA4006464646464646464646464640000000050
:104CB40000000000010203040607080900000000C8
:044CC40001020304E2
:084CC80030B5FF7F0100000080
:044CD000AD0100082A
:044CD400890100084A
:104CD800010000001000000004FF000001000200B5
:104CE80003000400050006000700080009000A0088
:084CF8000B0000000024F40091
:0400000508004BD1D3
:00000001FF
